{
  "_format": "hh-sol-artifact-1",
  "contractName": "FlexibleStaking",
  "sourceName": "contracts/FlexibleStaking.sol",
  "abi": [
    {
      "inputs": [],
      "name": "InvalidInitialization",
      "type": "error"
    },
    {
      "inputs": [],
      "name": "NotInitializing",
      "type": "error"
    },
    {
      "inputs": [
        {
          "internalType": "address",
          "name": "owner",
          "type": "address"
        }
      ],
      "name": "OwnableInvalidOwner",
      "type": "error"
    },
    {
      "inputs": [
        {
          "internalType": "address",
          "name": "account",
          "type": "address"
        }
      ],
      "name": "OwnableUnauthorizedAccount",
      "type": "error"
    },
    {
      "anonymous": false,
      "inputs": [
        {
          "indexed": false,
          "internalType": "uint64",
          "name": "version",
          "type": "uint64"
        }
      ],
      "name": "Initialized",
      "type": "event"
    },
    {
      "anonymous": false,
      "inputs": [
        {
          "indexed": true,
          "internalType": "address",
          "name": "previousOwner",
          "type": "address"
        },
        {
          "indexed": true,
          "internalType": "address",
          "name": "newOwner",
          "type": "address"
        }
      ],
      "name": "OwnershipTransferred",
      "type": "event"
    },
    {
      "anonymous": false,
      "inputs": [
        {
          "indexed": true,
          "internalType": "address",
          "name": "user",
          "type": "address"
        },
        {
          "indexed": false,
          "internalType": "uint256",
          "name": "reward",
          "type": "uint256"
        }
      ],
      "name": "RewardClaimed",
      "type": "event"
    },
    {
      "anonymous": false,
      "inputs": [
        {
          "indexed": true,
          "internalType": "address",
          "name": "user",
          "type": "address"
        },
        {
          "indexed": false,
          "internalType": "uint256",
          "name": "amount",
          "type": "uint256"
        }
      ],
      "name": "Staked",
      "type": "event"
    },
    {
      "anonymous": false,
      "inputs": [
        {
          "indexed": true,
          "internalType": "address",
          "name": "user",
          "type": "address"
        },
        {
          "indexed": false,
          "internalType": "uint256",
          "name": "amount",
          "type": "uint256"
        }
      ],
      "name": "Unstaked",
      "type": "event"
    },
    {
      "inputs": [
        {
          "internalType": "address",
          "name": "_user",
          "type": "address"
        }
      ],
      "name": "calculateReward",
      "outputs": [
        {
          "internalType": "uint256",
          "name": "",
          "type": "uint256"
        }
      ],
      "stateMutability": "view",
      "type": "function"
    },
    {
      "inputs": [
        {
          "internalType": "address",
          "name": "_token",
          "type": "address"
        }
      ],
      "name": "initialize",
      "outputs": [],
      "stateMutability": "nonpayable",
      "type": "function"
    },
    {
      "inputs": [],
      "name": "owner",
      "outputs": [
        {
          "internalType": "address",
          "name": "",
          "type": "address"
        }
      ],
      "stateMutability": "view",
      "type": "function"
    },
    {
      "inputs": [],
      "name": "renounceOwnership",
      "outputs": [],
      "stateMutability": "nonpayable",
      "type": "function"
    },
    {
      "inputs": [],
      "name": "rewardRatePerSecond",
      "outputs": [
        {
          "internalType": "uint256",
          "name": "",
          "type": "uint256"
        }
      ],
      "stateMutability": "view",
      "type": "function"
    },
    {
      "inputs": [
        {
          "internalType": "uint256",
          "name": "_amount",
          "type": "uint256"
        }
      ],
      "name": "stake",
      "outputs": [],
      "stateMutability": "nonpayable",
      "type": "function"
    },
    {
      "inputs": [
        {
          "internalType": "address",
          "name": "",
          "type": "address"
        }
      ],
      "name": "stakes",
      "outputs": [
        {
          "internalType": "uint256",
          "name": "amount",
          "type": "uint256"
        },
        {
          "internalType": "uint256",
          "name": "rewardDebt",
          "type": "uint256"
        },
        {
          "internalType": "uint256",
          "name": "lastStakedTime",
          "type": "uint256"
        }
      ],
      "stateMutability": "view",
      "type": "function"
    },
    {
      "inputs": [],
      "name": "stakingToken",
      "outputs": [
        {
          "internalType": "contract IERC20",
          "name": "",
          "type": "address"
        }
      ],
      "stateMutability": "view",
      "type": "function"
    },
    {
      "inputs": [
        {
          "internalType": "address",
          "name": "newOwner",
          "type": "address"
        }
      ],
      "name": "transferOwnership",
      "outputs": [],
      "stateMutability": "nonpayable",
      "type": "function"
    },
    {
      "inputs": [],
      "name": "unstake",
      "outputs": [],
      "stateMutability": "nonpayable",
      "type": "function"
    }
  ],
  "bytecode": "0x608060405234801561001057600080fd5b5061126b806100206000396000f3fe608060405234801561001057600080fd5b506004361061009e5760003560e01c80638da5cb5b116100665780638da5cb5b14610125578063a694fc3a14610143578063c4d66de81461015f578063d82e39621461017b578063f2fde38b146101ab5761009e565b806316934fc4146100a35780632def6620146100d55780635d773b2c146100df578063715018a6146100fd57806372f702f314610107575b600080fd5b6100bd60048036038101906100b89190610d4f565b6101c7565b6040516100cc93929190610d95565b60405180910390f35b6100dd6101f1565b005b6100e76103f0565b6040516100f49190610dcc565b60405180910390f35b6101056103f6565b005b61010f61040a565b60405161011c9190610e46565b60405180910390f35b61012d61042e565b60405161013a9190610e70565b60405180910390f35b61015d60048036038101906101589190610eb7565b610466565b005b61017960048036038101906101749190610d4f565b61070c565b005b61019560048036038101906101909190610d4f565b6108e7565b6040516101a29190610dcc565b60405180910390f35b6101c560048036038101906101c09190610d4f565b61099f565b005b60026020528060005260406000206000915090508060000154908060010154908060020154905083565b6000600260003373ffffffffffffffffffffffffffffffffffffffff1673ffffffffffffffffffffffffffffffffffffffff1681526020019081526020016000209050600081600001541161027b576040517f08c379a000000000000000000000000000000000000000000000000000000000815260040161027290610f41565b60405180910390fd5b6000610286336108e7565b9050600082600001549050600083600001819055506000836002018190555060008054906101000a900473ffffffffffffffffffffffffffffffffffffffff1673ffffffffffffffffffffffffffffffffffffffff1663a9059cbb3384846102ee9190610f90565b6040518363ffffffff1660e01b815260040161030b929190610fc4565b6020604051808303816000875af115801561032a573d6000803e3d6000fd5b505050506040513d601f19601f8201168201806040525081019061034e9190611025565b503373ffffffffffffffffffffffffffffffffffffffff167f0f5bb82176feb1b5e747e28471aa92156a04d9f3ab9f45f28e2d704232b93f75826040516103959190610dcc565b60405180910390a23373ffffffffffffffffffffffffffffffffffffffff167f106f923f993c2149d49b4255ff723acafa1f2d94393f561d3eda32ae348f7241836040516103e39190610dcc565b60405180910390a2505050565b60015481565b6103fe610a25565b6104086000610aac565b565b60008054906101000a900473ffffffffffffffffffffffffffffffffffffffff1681565b600080610439610b83565b90508060000160009054906101000a900473ffffffffffffffffffffffffffffffffffffffff1691505090565b600081116104a9576040517f08c379a00000000000000000000000000000000000000000000000000000000081526004016104a09061109e565b60405180910390fd5b6000600260003373ffffffffffffffffffffffffffffffffffffffff1673ffffffffffffffffffffffffffffffffffffffff16815260200190815260200160002090506000816000015411156105f5576000610504336108e7565b905060008054906101000a900473ffffffffffffffffffffffffffffffffffffffff1673ffffffffffffffffffffffffffffffffffffffff1663a9059cbb33836040518363ffffffff1660e01b8152600401610561929190610fc4565b6020604051808303816000875af1158015610580573d6000803e3d6000fd5b505050506040513d601f19601f820116820180604052508101906105a49190611025565b503373ffffffffffffffffffffffffffffffffffffffff167f106f923f993c2149d49b4255ff723acafa1f2d94393f561d3eda32ae348f7241826040516105eb9190610dcc565b60405180910390a2505b60008054906101000a900473ffffffffffffffffffffffffffffffffffffffff1673ffffffffffffffffffffffffffffffffffffffff166323b872dd3330856040518463ffffffff1660e01b8152600401610652939291906110be565b6020604051808303816000875af1158015610671573d6000803e3d6000fd5b505050506040513d601f19601f820116820180604052508101906106959190611025565b50818160000160008282546106aa9190610f90565b925050819055504281600201819055503373ffffffffffffffffffffffffffffffffffffffff167f9e71bc8eea02a63969f509818f2dafb9254532904319f9dbda79b67bd34a5f3d836040516107009190610dcc565b60405180910390a25050565b6000610716610bab565b905060008160000160089054906101000a900460ff1615905060008260000160009054906101000a900467ffffffffffffffff1690506000808267ffffffffffffffff161480156107645750825b9050600060018367ffffffffffffffff16148015610799575060003073ffffffffffffffffffffffffffffffffffffffff163b145b9050811580156107a7575080155b156107de576040517ff92ee8a900000000000000000000000000000000000000000000000000000000815260040160405180910390fd5b60018560000160006101000a81548167ffffffffffffffff021916908367ffffffffffffffff160217905550831561082e5760018560000160086101000a81548160ff0219169083151502179055505b61083733610bbf565b856000806101000a81548173ffffffffffffffffffffffffffffffffffffffff021916908373ffffffffffffffffffffffffffffffffffffffff1602179055506458989c533d60018190555083156108df5760008560000160086101000a81548160ff0219169083151502179055507fc7f505b2f371ae2175ee4913f4499e1f2633a7b5936321eed1cdaeb6115181d260016040516108d69190611144565b60405180910390a15b505050505050565b600080600260008473ffffffffffffffffffffffffffffffffffffffff1673ffffffffffffffffffffffffffffffffffffffff1681526020019081526020016000209050600081600001541480610942575060008160020154145b1561095157600091505061099a565b6000816002015442610963919061115f565b9050670de0b6b3a76400008160015484600001546109819190611193565b61098b9190611193565b6109959190611204565b925050505b919050565b6109a7610a25565b600073ffffffffffffffffffffffffffffffffffffffff168173ffffffffffffffffffffffffffffffffffffffff1603610a195760006040517f1e4fbdf7000000000000000000000000000000000000000000000000000000008152600401610a109190610e70565b60405180910390fd5b610a2281610aac565b50565b610a2d610bd3565b73ffffffffffffffffffffffffffffffffffffffff16610a4b61042e565b73ffffffffffffffffffffffffffffffffffffffff1614610aaa57610a6e610bd3565b6040517f118cdaa7000000000000000000000000000000000000000000000000000000008152600401610aa19190610e70565b60405180910390fd5b565b6000610ab6610b83565b905060008160000160009054906101000a900473ffffffffffffffffffffffffffffffffffffffff169050828260000160006101000a81548173ffffffffffffffffffffffffffffffffffffffff021916908373ffffffffffffffffffffffffffffffffffffffff1602179055508273ffffffffffffffffffffffffffffffffffffffff168173ffffffffffffffffffffffffffffffffffffffff167f8be0079c531659141344cd1fd0a4f28419497f9722a3daafe3b4186f6b6457e060405160405180910390a3505050565b60007f9016d09d72d40fdae2fd8ceac6b6234c7706214fd39c1cd1e609a0528c199300905090565b600080610bb6610bdb565b90508091505090565b610bc7610c06565b610bd081610c46565b50565b600033905090565b60007ff0c57e16840df040f15088dc2f81fe391c3923bec73e23a9662efc9c229c6a0060001b905090565b610c0e610ccc565b610c44576040517fd7e6bcf800000000000000000000000000000000000000000000000000000000815260040160405180910390fd5b565b610c4e610c06565b600073ffffffffffffffffffffffffffffffffffffffff168173ffffffffffffffffffffffffffffffffffffffff1603610cc05760006040517f1e4fbdf7000000000000000000000000000000000000000000000000000000008152600401610cb79190610e70565b60405180910390fd5b610cc981610aac565b50565b6000610cd6610bab565b60000160089054906101000a900460ff16905090565b600080fd5b600073ffffffffffffffffffffffffffffffffffffffff82169050919050565b6000610d1c82610cf1565b9050919050565b610d2c81610d11565b8114610d3757600080fd5b50565b600081359050610d4981610d23565b92915050565b600060208284031215610d6557610d64610cec565b5b6000610d7384828501610d3a565b91505092915050565b6000819050919050565b610d8f81610d7c565b82525050565b6000606082019050610daa6000830186610d86565b610db76020830185610d86565b610dc46040830184610d86565b949350505050565b6000602082019050610de16000830184610d86565b92915050565b6000819050919050565b6000610e0c610e07610e0284610cf1565b610de7565b610cf1565b9050919050565b6000610e1e82610df1565b9050919050565b6000610e3082610e13565b9050919050565b610e4081610e25565b82525050565b6000602082019050610e5b6000830184610e37565b92915050565b610e6a81610d11565b82525050565b6000602082019050610e856000830184610e61565b92915050565b610e9481610d7c565b8114610e9f57600080fd5b50565b600081359050610eb181610e8b565b92915050565b600060208284031215610ecd57610ecc610cec565b5b6000610edb84828501610ea2565b91505092915050565b600082825260208201905092915050565b7f4e6f7468696e6720746f20756e7374616b650000000000000000000000000000600082015250565b6000610f2b601283610ee4565b9150610f3682610ef5565b602082019050919050565b60006020820190508181036000830152610f5a81610f1e565b9050919050565b7f4e487b7100000000000000000000000000000000000000000000000000000000600052601160045260246000fd5b6000610f9b82610d7c565b9150610fa683610d7c565b9250828201905080821115610fbe57610fbd610f61565b5b92915050565b6000604082019050610fd96000830185610e61565b610fe66020830184610d86565b9392505050565b60008115159050919050565b61100281610fed565b811461100d57600080fd5b50565b60008151905061101f81610ff9565b92915050565b60006020828403121561103b5761103a610cec565b5b600061104984828501611010565b91505092915050565b7f43616e6e6f74207374616b65207a65726f000000000000000000000000000000600082015250565b6000611088601183610ee4565b915061109382611052565b602082019050919050565b600060208201905081810360008301526110b78161107b565b9050919050565b60006060820190506110d36000830186610e61565b6110e06020830185610e61565b6110ed6040830184610d86565b949350505050565b6000819050919050565b600067ffffffffffffffff82169050919050565b600061112e611129611124846110f5565b610de7565b6110ff565b9050919050565b61113e81611113565b82525050565b60006020820190506111596000830184611135565b92915050565b600061116a82610d7c565b915061117583610d7c565b925082820390508181111561118d5761118c610f61565b5b92915050565b600061119e82610d7c565b91506111a983610d7c565b92508282026111b781610d7c565b915082820484148315176111ce576111cd610f61565b5b5092915050565b7f4e487b7100000000000000000000000000000000000000000000000000000000600052601260045260246000fd5b600061120f82610d7c565b915061121a83610d7c565b92508261122a576112296111d5565b5b82820490509291505056fea264697066735822122025f9f102bcfae7a0f8e42c75afb205912a5b76da1bb829dd9ed67ed3f7917d9964736f6c63430008140033",
  "linkReferences": {},
  "deployedLinkReferences": {}
}